{
  "contractName": "AllzToken",
  "abi": [
    {
      "constant": true,
      "inputs": [],
      "name": "totalSupply",
      "outputs": [
        {
          "name": "",
          "type": "uint256"
        }
      ],
      "payable": false,
      "stateMutability": "view",
      "type": "function"
    },
    {
      "inputs": [
        {
          "name": "_intialSupply",
          "type": "uint256"
        }
      ],
      "payable": false,
      "stateMutability": "nonpayable",
      "type": "constructor"
    }
  ],
  "bytecode": "0x608060405234801561001057600080fd5b506040516020806100e7833981018060405281019080805190602001909291905050508060008190555050609e806100496000396000f300608060405260043610603f576000357c0100000000000000000000000000000000000000000000000000000000900463ffffffff16806318160ddd146044575b600080fd5b348015604f57600080fd5b506056606c565b6040518082815260200191505060405180910390f35b600054815600a165627a7a7230582040ab46d37d07238319ccb7621aedfa0b5ee849b8c8b0e6f64da224159b0e8a1c0029",
  "source": "pragma solidity ^0.4.19;\n\n/**\n * The contractName contract does this and that...\n */\ncontract AllzToken {\n\n\tuint256 public totalSupply ;\n\n\t constructor (uint256 _intialSupply) public {\n\t\t\n\t\ttotalSupply=_intialSupply;\n\n\t}\n\n}\n",
  "sourcePath": "/Users/balasingh/AllZ_TokenSale/contracts/AllzToken.sol",
  "compiler": {
    "name": "solc",
    "version": "0.4.24+commit.e67f0147.Emscripten.clang"
  },
  "schemaVersion": "2.0.1",
  "updatedAt": "2018-11-03T15:33:50.005Z"
}